{
  "contractName": "IMEI",
  "abi": [
    {
      "anonymous": false,
      "inputs": [
        {
          "indexed": false,
          "internalType": "string",
          "name": "imei",
          "type": "string"
        },
        {
          "indexed": true,
          "internalType": "address",
          "name": "reporter",
          "type": "address"
        },
        {
          "indexed": false,
          "internalType": "uint256",
          "name": "timestamp",
          "type": "uint256"
        }
      ],
      "name": "DeviceDelisted",
      "type": "event"
    },
    {
      "anonymous": false,
      "inputs": [
        {
          "indexed": false,
          "internalType": "string",
          "name": "imei",
          "type": "string"
        },
        {
          "indexed": true,
          "internalType": "address",
          "name": "reporter",
          "type": "address"
        },
        {
          "indexed": false,
          "internalType": "uint256",
          "name": "timestamp",
          "type": "uint256"
        }
      ],
      "name": "DeviceReported",
      "type": "event"
    },
    {
      "inputs": [
        {
          "internalType": "string",
          "name": "_imei",
          "type": "string"
        }
      ],
      "name": "reportLostDevice",
      "outputs": [],
      "stateMutability": "nonpayable",
      "type": "function"
    },
    {
      "inputs": [
        {
          "internalType": "string",
          "name": "_imei",
          "type": "string"
        }
      ],
      "name": "getLostDevice",
      "outputs": [
        {
          "internalType": "string",
          "name": "",
          "type": "string"
        },
        {
          "internalType": "address",
          "name": "",
          "type": "address"
        },
        {
          "internalType": "uint256",
          "name": "",
          "type": "uint256"
        }
      ],
      "stateMutability": "view",
      "type": "function",
      "constant": true
    },
    {
      "inputs": [
        {
          "internalType": "string",
          "name": "_imei",
          "type": "string"
        }
      ],
      "name": "deviceExists",
      "outputs": [
        {
          "internalType": "bool",
          "name": "",
          "type": "bool"
        }
      ],
      "stateMutability": "view",
      "type": "function",
      "constant": true
    },
    {
      "inputs": [
        {
          "internalType": "string",
          "name": "_imei",
          "type": "string"
        }
      ],
      "name": "delistDevice",
      "outputs": [],
      "stateMutability": "nonpayable",
      "type": "function"
    },
    {
      "inputs": [],
      "name": "getTotalReportedDevices",
      "outputs": [
        {
          "internalType": "uint256",
          "name": "",
          "type": "uint256"
        }
      ],
      "stateMutability": "view",
      "type": "function",
      "constant": true
    },
    {
      "inputs": [],
      "name": "getReportedImeis",
      "outputs": [
        {
          "internalType": "string[]",
          "name": "",
          "type": "string[]"
        }
      ],
      "stateMutability": "view",
      "type": "function",
      "constant": true
    }
  ],
  "bytecode": "0x608060405234801561001057600080fd5b506113fb806100206000396000f3fe608060405234801561001057600080fd5b50600436106100625760003560e01c806324ecaedf146100675780633d9bdb0c14610099578063aaed589d146100b5578063cb069231146100e5578063cf363f5414610103578063f12947c81461011f575b600080fd5b610081600480360381019061007c9190610b39565b61013d565b60405161009093929190610ee3565b60405180910390f35b6100b360048036038101906100ae9190610b39565b6102c5565b005b6100cf60048036038101906100ca9190610b39565b6104ab565b6040516100dc9190610ec8565b60405180910390f35b6100ed6104e4565b6040516100fa9190610fd1565b60405180910390f35b61011d60048036038101906101189190610b39565b6104f1565b005b610127610781565b6040516101349190610ea6565b60405180910390f35b606060008061014b846104ab565b61018a576040517f08c379a000000000000000000000000000000000000000000000000000000000815260040161018190610f51565b60405180910390fd5b6000808560405161019b9190610e8f565b90815260200160405180910390206040518060600160405290816000820180546101c49061124c565b80601f01602080910402602001604051908101604052809291908181526020018280546101f09061124c565b801561023d5780601f106102125761010080835404028352916020019161023d565b820191906000526020600020905b81548152906001019060200180831161022057829003601f168201915b505050505081526020016001820160009054906101000a900473ffffffffffffffffffffffffffffffffffffffff1673ffffffffffffffffffffffffffffffffffffffff1673ffffffffffffffffffffffffffffffffffffffff1681526020016002820154815250509050806000015181602001518260400151935093509350509193909250565b6102ce8161085a565b61030d576040517f08c379a000000000000000000000000000000000000000000000000000000000815260040161030490610fb1565b60405180910390fd5b610316816104ab565b15610356576040517f08c379a000000000000000000000000000000000000000000000000000000000815260040161034d90610f71565b60405180910390fd5b600042905060405180606001604052808381526020013373ffffffffffffffffffffffffffffffffffffffff1681526020018281525060008360405161039c9190610e8f565b908152602001604051809103902060008201518160000190805190602001906103c6929190610961565b5060208201518160010160006101000a81548173ffffffffffffffffffffffffffffffffffffffff021916908373ffffffffffffffffffffffffffffffffffffffff16021790555060408201518160020155905050600182908060018154018082558091505060019003906000526020600020016000909190919091509080519060200190610456929190610961565b503373ffffffffffffffffffffffffffffffffffffffff167fec81edc87426db2cd7a88af00069eac461a260009e9e63c83dcdbfe3ccee317c838360405161049f929190610f21565b60405180910390a25050565b6000806000836040516104be9190610e8f565b908152602001604051809103902060000180546104da9061124c565b9050119050919050565b6000600180549050905090565b6104fa816104ab565b610539576040517f08c379a000000000000000000000000000000000000000000000000000000000815260040161053090610f91565b60405180910390fd5b6000816040516105499190610e8f565b90815260200160405180910390206000808201600061056891906109e7565b6001820160006101000a81549073ffffffffffffffffffffffffffffffffffffffff02191690556002820160009055505060005b60018054905081101561072d578180519060200120600182815481106105eb577f4e487b7100000000000000000000000000000000000000000000000000000000600052603260045260246000fd5b906000526020600020016040516106029190610e78565b6040518091039020141561071a576001808080549050610622919061118e565b81548110610659577f4e487b7100000000000000000000000000000000000000000000000000000000600052603260045260246000fd5b906000526020600020016001828154811061069d577f4e487b7100000000000000000000000000000000000000000000000000000000600052603260045260246000fd5b906000526020600020019080546106b39061124c565b6106be929190610a27565b5060018054806106f7577f4e487b7100000000000000000000000000000000000000000000000000000000600052603160045260246000fd5b60019003818190600052602060002001600061071391906109e7565b905561072d565b80806107259061127e565b91505061059c565b503373ffffffffffffffffffffffffffffffffffffffff167f8af3dccc1133efaa963096043800b115258161b34af1412ba246fa9571ccfd138242604051610776929190610f21565b60405180910390a250565b60606001805480602002602001604051908101604052809291908181526020016000905b828210156108515783829060005260206000200180546107c49061124c565b80601f01602080910402602001604051908101604052809291908181526020018280546107f09061124c565b801561083d5780601f106108125761010080835404028352916020019161083d565b820191906000526020600020905b81548152906001019060200180831161082057829003601f168201915b5050505050815260200190600101906107a5565b50505050905090565b600080829050600f81511461087357600091505061095c565b6000805b600f81101561094657600060308483815181106108bd577f4e487b7100000000000000000000000000000000000000000000000000000000600052603260045260246000fd5b602001015160f81c60f81b60f81c60ff166108d8919061118e565b905060016002836108e991906112c7565b1415610924576002816108fc9190611134565b90506009811115610923576001600a8261091691906112c7565b61092091906110de565b90505b5b808361093091906110de565b925050808061093e9061127e565b915050610877565b506000600a8261095691906112c7565b14925050505b919050565b82805461096d9061124c565b90600052602060002090601f01602090048101928261098f57600085556109d6565b82601f106109a857805160ff19168380011785556109d6565b828001600101855582156109d6579182015b828111156109d55782518255916020019190600101906109ba565b5b5090506109e39190610ab4565b5090565b5080546109f39061124c565b6000825580601f10610a055750610a24565b601f016020900490600052602060002090810190610a239190610ab4565b5b50565b828054610a339061124c565b90600052602060002090601f016020900481019282610a555760008555610aa3565b82601f10610a665780548555610aa3565b82800160010185558215610aa357600052602060002091601f016020900482015b82811115610aa2578254825591600101919060010190610a87565b5b509050610ab09190610ab4565b5090565b5b80821115610acd576000816000905550600101610ab5565b5090565b6000610ae4610adf8461101d565b610fec565b905082815260208101848484011115610afc57600080fd5b610b0784828561120a565b509392505050565b600082601f830112610b2057600080fd5b8135610b30848260208601610ad1565b91505092915050565b600060208284031215610b4b57600080fd5b600082013567ffffffffffffffff811115610b6557600080fd5b610b7184828501610b0f565b91505092915050565b6000610b868383610ca0565b905092915050565b610b97816111c2565b82525050565b6000610ba882611072565b610bb28185611095565b935083602082028501610bc48561104d565b8060005b85811015610c005784840389528151610be18582610b7a565b9450610bec83611088565b925060208a01995050600181019050610bc8565b50829750879550505050505092915050565b610c1b816111d4565b82525050565b60008154610c2e8161124c565b610c3881866110a6565b94506001821660008114610c535760018114610c6457610c97565b60ff19831686528186019350610c97565b610c6d8561105d565b60005b83811015610c8f57815481890152600182019150602081019050610c70565b838801955050505b50505092915050565b6000610cab8261107d565b610cb581856110b1565b9350610cc5818560208601611219565b610cce816113b4565b840191505092915050565b6000610ce48261107d565b610cee81856110c2565b9350610cfe818560208601611219565b610d07816113b4565b840191505092915050565b6000610d1d8261107d565b610d2781856110d3565b9350610d37818560208601611219565b80840191505092915050565b6000610d506011836110c2565b91507f494d4549206e6f74207265706f727465640000000000000000000000000000006000830152602082019050919050565b6000610d906015836110c2565b91507f494d454920616c7265616479207265706f7274656400000000000000000000006000830152602082019050919050565b6000610dd06025836110c2565b91507f4465766963652077697468207468697320494d454920646f6573206e6f74206560008301527f786973742e0000000000000000000000000000000000000000000000000000006020830152604082019050919050565b6000610e366013836110c2565b91507f496e76616c696420494d4549206e756d626572000000000000000000000000006000830152602082019050919050565b610e7281611200565b82525050565b6000610e848284610c21565b915081905092915050565b6000610e9b8284610d12565b915081905092915050565b60006020820190508181036000830152610ec08184610b9d565b905092915050565b6000602082019050610edd6000830184610c12565b92915050565b60006060820190508181036000830152610efd8186610cd9565b9050610f0c6020830185610b8e565b610f196040830184610e69565b949350505050565b60006040820190508181036000830152610f3b8185610cd9565b9050610f4a6020830184610e69565b9392505050565b60006020820190508181036000830152610f6a81610d43565b9050919050565b60006020820190508181036000830152610f8a81610d83565b9050919050565b60006020820190508181036000830152610faa81610dc3565b9050919050565b60006020820190508181036000830152610fca81610e29565b9050919050565b6000602082019050610fe66000830184610e69565b92915050565b6000604051905081810181811067ffffffffffffffff8211171561101357611012611385565b5b8060405250919050565b600067ffffffffffffffff82111561103857611037611385565b5b601f19601f8301169050602081019050919050565b6000819050602082019050919050565b60008190508160005260206000209050919050565b600081519050919050565b600081519050919050565b6000602082019050919050565b600082825260208201905092915050565b600081905092915050565b600082825260208201905092915050565b600082825260208201905092915050565b600081905092915050565b60006110e982611200565b91506110f483611200565b9250827fffffffffffffffffffffffffffffffffffffffffffffffffffffffffffffffff03821115611129576111286112f8565b5b828201905092915050565b600061113f82611200565b915061114a83611200565b9250817fffffffffffffffffffffffffffffffffffffffffffffffffffffffffffffffff0483118215151615611183576111826112f8565b5b828202905092915050565b600061119982611200565b91506111a483611200565b9250828210156111b7576111b66112f8565b5b828203905092915050565b60006111cd826111e0565b9050919050565b60008115159050919050565b600073ffffffffffffffffffffffffffffffffffffffff82169050919050565b6000819050919050565b82818337600083830152505050565b60005b8381101561123757808201518184015260208101905061121c565b83811115611246576000848401525b50505050565b6000600282049050600182168061126457607f821691505b6020821081141561127857611277611356565b5b50919050565b600061128982611200565b91507fffffffffffffffffffffffffffffffffffffffffffffffffffffffffffffffff8214156112bc576112bb6112f8565b5b600182019050919050565b60006112d282611200565b91506112dd83611200565b9250826112ed576112ec611327565b5b828206905092915050565b7f4e487b7100000000000000000000000000000000000000000000000000000000600052601160045260246000fd5b7f4e487b7100000000000000000000000000000000000000000000000000000000600052601260045260246000fd5b7f4e487b7100000000000000000000000000000000000000000000000000000000600052602260045260246000fd5b7f4e487b7100000000000000000000000000000000000000000000000000000000600052604160045260246000fd5b6000601f19601f830116905091905056fea2646970667358221220a40ef5ba9298b1d9f985c1c1ec06518b9cc5b404c587a8fd7f7971303adb632f64736f6c63430008000033",
  "immutableReferences": {},
  "source": "// SPDX-License-Identifier: MIT\r\npragma solidity >=0.4.22 <0.9.0;\r\n\r\ncontract IMEI {\r\n    struct LostDevice {\r\n        string imei;\r\n        address reporter;\r\n        uint256 timestamp;\r\n    }\r\n\r\n    mapping(string => LostDevice) private lostDevices;\r\n    string[] private reportedImeis;\r\n\r\n    event DeviceReported(string imei, address indexed reporter, uint256 timestamp);\r\n    event DeviceDelisted(string imei, address indexed reporter, uint256 timestamp);\r\n\r\n    function reportLostDevice(string memory _imei) public {\r\n        require(isValidIMEI(_imei), \"Invalid IMEI number\");\r\n        require(!deviceExists(_imei), \"IMEI already reported\");\r\n\r\n        uint256 currentTimestamp = block.timestamp;\r\n        lostDevices[_imei] = LostDevice(_imei, msg.sender, currentTimestamp);\r\n        reportedImeis.push(_imei);\r\n        emit DeviceReported(_imei, msg.sender, currentTimestamp);\r\n    }\r\n\r\n    function getLostDevice(string memory _imei) public view returns (string memory, address, uint256) {\r\n        require(deviceExists(_imei), \"IMEI not reported\");\r\n        LostDevice memory device = lostDevices[_imei];\r\n        return (device.imei, device.reporter, device.timestamp);\r\n    }\r\n\r\n    function deviceExists(string memory _imei) public view returns (bool) {\r\n        return bytes(lostDevices[_imei].imei).length > 0;\r\n    }\r\n    function delistDevice(string memory _imei) public {\r\n    require(deviceExists(_imei), \"Device with this IMEI does not exist.\");\r\n\r\n    // Remove from the mapping\r\n    delete lostDevices[_imei];\r\n\r\n    // Remove from the array\r\n    for (uint i = 0; i < reportedImeis.length; i++) {\r\n        if (keccak256(bytes(reportedImeis[i])) == keccak256(bytes(_imei))) {\r\n            reportedImeis[i] = reportedImeis[reportedImeis.length - 1];\r\n            reportedImeis.pop();\r\n            break;\r\n        }\r\n    }\r\n\r\n    emit DeviceDelisted(_imei, msg.sender, block.timestamp);\r\n}\r\n\r\n    function getTotalReportedDevices() public view returns (uint256) {\r\n        return reportedImeis.length;\r\n    }\r\n\r\n    function getReportedImeis() public view returns (string[] memory) {\r\n        return reportedImeis;\r\n    }\r\n    function isValidIMEI(string memory _imei) internal pure returns (bool) {\r\n    bytes memory imeiBytes = bytes(_imei);\r\n    \r\n    // Check length\r\n    if (imeiBytes.length != 15) {\r\n        return false;\r\n    }\r\n    \r\n    // Check Luhn algorithm\r\n    uint256 sum = 0;\r\n    for (uint256 i = 0; i < 15; i++) {\r\n        uint256 digit = uint256(uint8(imeiBytes[i])) - 48; // Convert ASCII to digit\r\n        if (i % 2 == 1) {\r\n            digit *= 2;\r\n            if (digit > 9) {\r\n                digit = (digit % 10) + 1; // Same as adding the digits of the product\r\n            }\r\n        }\r\n        sum += digit;\r\n    }\r\n    return sum % 10 == 0;\r\n    }\r\n}\r\n",
  "sourcePath": "C:\\Users\\theni\\OneDrive - nonstopable\\Documents\\Blockchain_Solution_of_Mobile_theft\\contracts\\IMEI.sol",
  "compiler": {
    "name": "solc",
    "version": "0.8.0+commit.c7dfd78e.Emscripten.clang"
  },
  "schemaVersion": "3.4.16",
  "updatedAt": "2024-07-24T14:32:39.181Z",
  "networkType": "ethereum",
  "devdoc": {
    "kind": "dev",
    "methods": {},
    "version": 1
  },
  "userdoc": {
    "kind": "user",
    "methods": {},
    "version": 1
  }
}