{
  "contractName": "IMEI",
  "abi": [
    {
      "anonymous": false,
      "inputs": [
        {
          "indexed": false,
          "internalType": "string",
          "name": "imei",
          "type": "string"
        },
        {
          "indexed": true,
          "internalType": "address",
          "name": "reporter",
          "type": "address"
        },
        {
          "indexed": false,
          "internalType": "uint256",
          "name": "timestamp",
          "type": "uint256"
        }
      ],
      "name": "DeviceDelisted",
      "type": "event"
    },
    {
      "anonymous": false,
      "inputs": [
        {
          "indexed": false,
          "internalType": "string",
          "name": "imei",
          "type": "string"
        },
        {
          "indexed": true,
          "internalType": "address",
          "name": "reporter",
          "type": "address"
        },
        {
          "indexed": false,
          "internalType": "uint256",
          "name": "timestamp",
          "type": "uint256"
        }
      ],
      "name": "DeviceReported",
      "type": "event"
    },
    {
      "inputs": [
        {
          "internalType": "string",
          "name": "_imei",
          "type": "string"
        }
      ],
      "name": "reportLostDevice",
      "outputs": [],
      "stateMutability": "nonpayable",
      "type": "function"
    },
    {
      "inputs": [
        {
          "internalType": "string",
          "name": "_imei",
          "type": "string"
        }
      ],
      "name": "getLostDevice",
      "outputs": [
        {
          "internalType": "string",
          "name": "",
          "type": "string"
        },
        {
          "internalType": "address",
          "name": "",
          "type": "address"
        },
        {
          "internalType": "uint256",
          "name": "",
          "type": "uint256"
        }
      ],
      "stateMutability": "view",
      "type": "function",
      "constant": true
    },
    {
      "inputs": [
        {
          "internalType": "string",
          "name": "_imei",
          "type": "string"
        }
      ],
      "name": "deviceExists",
      "outputs": [
        {
          "internalType": "bool",
          "name": "",
          "type": "bool"
        }
      ],
      "stateMutability": "view",
      "type": "function",
      "constant": true
    },
    {
      "inputs": [
        {
          "internalType": "string",
          "name": "_imei",
          "type": "string"
        }
      ],
      "name": "delistDevice",
      "outputs": [],
      "stateMutability": "nonpayable",
      "type": "function"
    },
    {
      "inputs": [],
      "name": "getTotalReportedDevices",
      "outputs": [
        {
          "internalType": "uint256",
          "name": "",
          "type": "uint256"
        }
      ],
      "stateMutability": "view",
      "type": "function",
      "constant": true
    },
    {
      "inputs": [],
      "name": "getReportedImeis",
      "outputs": [
        {
          "internalType": "string[]",
          "name": "",
          "type": "string[]"
        }
      ],
      "stateMutability": "view",
      "type": "function",
      "constant": true
    }
  ],
  "bytecode": "0x608060405234801561001057600080fd5b50610dbc806100206000396000f3fe608060405234801561001057600080fd5b50600436106100625760003560e01c806324ecaedf146100675780633d9bdb0c14610099578063aaed589d146100b5578063cb069231146100e5578063cf363f5414610103578063f12947c81461011f575b600080fd5b610081600480360381019061007c919061076c565b61013d565b60405161009093929190610a80565b60405180910390f35b6100b360048036038101906100ae919061076c565b6102c5565b005b6100cf60048036038101906100ca919061076c565b6104a7565b6040516100dc9190610a65565b60405180910390f35b6100ed6104e0565b6040516100fa9190610b6e565b60405180910390f35b61011d6004803603810190610118919061076c565b6104ed565b005b610127610588565b6040516101349190610a43565b60405180910390f35b606060008061014b846104a7565b61018a576040517f08c379a000000000000000000000000000000000000000000000000000000000815260040161018190610aee565b60405180910390fd5b6000808560405161019b9190610a2c565b90815260200160405180910390206040518060600160405290816000820180546101c490610ce5565b80601f01602080910402602001604051908101604052809291908181526020018280546101f090610ce5565b801561023d5780601f106102125761010080835404028352916020019161023d565b820191906000526020600020905b81548152906001019060200180831161022057829003601f168201915b505050505081526020016001820160009054906101000a900473ffffffffffffffffffffffffffffffffffffffff1673ffffffffffffffffffffffffffffffffffffffff1673ffffffffffffffffffffffffffffffffffffffff1681526020016002820154815250509050806000015181602001518260400151935093509350509193909250565b600f815114610309576040517f08c379a000000000000000000000000000000000000000000000000000000000815260040161030090610b4e565b60405180910390fd5b610312816104a7565b15610352576040517f08c379a000000000000000000000000000000000000000000000000000000000815260040161034990610b0e565b60405180910390fd5b600042905060405180606001604052808381526020013373ffffffffffffffffffffffffffffffffffffffff168152602001828152506000836040516103989190610a2c565b908152602001604051809103902060008201518160000190805190602001906103c2929190610661565b5060208201518160010160006101000a81548173ffffffffffffffffffffffffffffffffffffffff021916908373ffffffffffffffffffffffffffffffffffffffff16021790555060408201518160020155905050600182908060018154018082558091505060019003906000526020600020016000909190919091509080519060200190610452929190610661565b503373ffffffffffffffffffffffffffffffffffffffff167fec81edc87426db2cd7a88af00069eac461a260009e9e63c83dcdbfe3ccee317c838360405161049b929190610abe565b60405180910390a25050565b6000806000836040516104ba9190610a2c565b908152602001604051809103902060000180546104d690610ce5565b9050119050919050565b6000600180549050905090565b6104f6816104a7565b610535576040517f08c379a000000000000000000000000000000000000000000000000000000000815260040161052c90610b2e565b60405180910390fd5b3373ffffffffffffffffffffffffffffffffffffffff167f8af3dccc1133efaa963096043800b115258161b34af1412ba246fa9571ccfd13824260405161057d929190610abe565b60405180910390a250565b60606001805480602002602001604051908101604052809291908181526020016000905b828210156106585783829060005260206000200180546105cb90610ce5565b80601f01602080910402602001604051908101604052809291908181526020018280546105f790610ce5565b80156106445780601f1061061957610100808354040283529160200191610644565b820191906000526020600020905b81548152906001019060200180831161062757829003601f168201915b5050505050815260200190600101906105ac565b50505050905090565b82805461066d90610ce5565b90600052602060002090601f01602090048101928261068f57600085556106d6565b82601f106106a857805160ff19168380011785556106d6565b828001600101855582156106d6579182015b828111156106d55782518255916020019190600101906106ba565b5b5090506106e391906106e7565b5090565b5b808211156107005760008160009055506001016106e8565b5090565b600061071761071284610bba565b610b89565b90508281526020810184848401111561072f57600080fd5b61073a848285610ca3565b509392505050565b600082601f83011261075357600080fd5b8135610763848260208601610704565b91505092915050565b60006020828403121561077e57600080fd5b600082013567ffffffffffffffff81111561079857600080fd5b6107a484828501610742565b91505092915050565b60006107b98383610854565b905092915050565b6107ca81610c5b565b82525050565b60006107db82610bfa565b6107e58185610c1d565b9350836020820285016107f785610bea565b8060005b85811015610833578484038952815161081485826107ad565b945061081f83610c10565b925060208a019950506001810190506107fb565b50829750879550505050505092915050565b61084e81610c6d565b82525050565b600061085f82610c05565b6108698185610c2e565b9350610879818560208601610cb2565b61088281610d75565b840191505092915050565b600061089882610c05565b6108a28185610c3f565b93506108b2818560208601610cb2565b6108bb81610d75565b840191505092915050565b60006108d182610c05565b6108db8185610c50565b93506108eb818560208601610cb2565b80840191505092915050565b6000610904601183610c3f565b91507f494d4549206e6f74207265706f727465640000000000000000000000000000006000830152602082019050919050565b6000610944601583610c3f565b91507f494d454920616c7265616479207265706f7274656400000000000000000000006000830152602082019050919050565b6000610984602583610c3f565b91507f4465766963652077697468207468697320494d454920646f6573206e6f74206560008301527f786973742e0000000000000000000000000000000000000000000000000000006020830152604082019050919050565b60006109ea601383610c3f565b91507f496e76616c696420494d4549206c656e677468000000000000000000000000006000830152602082019050919050565b610a2681610c99565b82525050565b6000610a3882846108c6565b915081905092915050565b60006020820190508181036000830152610a5d81846107d0565b905092915050565b6000602082019050610a7a6000830184610845565b92915050565b60006060820190508181036000830152610a9a818661088d565b9050610aa960208301856107c1565b610ab66040830184610a1d565b949350505050565b60006040820190508181036000830152610ad8818561088d565b9050610ae76020830184610a1d565b9392505050565b60006020820190508181036000830152610b07816108f7565b9050919050565b60006020820190508181036000830152610b2781610937565b9050919050565b60006020820190508181036000830152610b4781610977565b9050919050565b60006020820190508181036000830152610b67816109dd565b9050919050565b6000602082019050610b836000830184610a1d565b92915050565b6000604051905081810181811067ffffffffffffffff82111715610bb057610baf610d46565b5b8060405250919050565b600067ffffffffffffffff821115610bd557610bd4610d46565b5b601f19601f8301169050602081019050919050565b6000819050602082019050919050565b600081519050919050565b600081519050919050565b6000602082019050919050565b600082825260208201905092915050565b600082825260208201905092915050565b600082825260208201905092915050565b600081905092915050565b6000610c6682610c79565b9050919050565b60008115159050919050565b600073ffffffffffffffffffffffffffffffffffffffff82169050919050565b6000819050919050565b82818337600083830152505050565b60005b83811015610cd0578082015181840152602081019050610cb5565b83811115610cdf576000848401525b50505050565b60006002820490506001821680610cfd57607f821691505b60208210811415610d1157610d10610d17565b5b50919050565b7f4e487b7100000000000000000000000000000000000000000000000000000000600052602260045260246000fd5b7f4e487b7100000000000000000000000000000000000000000000000000000000600052604160045260246000fd5b6000601f19601f830116905091905056fea264697066735822122032b59e369408401aa2d58e71fe937db4c68a5ffd074eaed21e96c4728e24376164736f6c63430008000033",
  "immutableReferences": {},
  "source": "// SPDX-License-Identifier: MIT\r\npragma solidity >=0.4.22 <0.9.0;\r\n\r\ncontract IMEI {\r\n    struct LostDevice {\r\n        string imei;\r\n        address reporter;\r\n        uint256 timestamp;\r\n    }\r\n\r\n    mapping(string => LostDevice) private lostDevices;\r\n    string[] private reportedImeis;\r\n\r\n    event DeviceReported(string imei, address indexed reporter, uint256 timestamp);\r\n    event DeviceDelisted(string imei, address indexed reporter, uint256 timestamp);\r\n\r\n    function reportLostDevice(string memory _imei) public {\r\n        require(bytes(_imei).length == 15, \"Invalid IMEI length\");\r\n        require(!deviceExists(_imei), \"IMEI already reported\");\r\n\r\n        uint256 currentTimestamp = block.timestamp;\r\n        lostDevices[_imei] = LostDevice(_imei, msg.sender, currentTimestamp);\r\n        reportedImeis.push(_imei);\r\n        emit DeviceReported(_imei, msg.sender, currentTimestamp);\r\n    }\r\n\r\n    function getLostDevice(string memory _imei) public view returns (string memory, address, uint256) {\r\n        require(deviceExists(_imei), \"IMEI not reported\");\r\n        LostDevice memory device = lostDevices[_imei];\r\n        return (device.imei, device.reporter, device.timestamp);\r\n    }\r\n\r\n    function deviceExists(string memory _imei) public view returns (bool) {\r\n        return bytes(lostDevices[_imei].imei).length > 0;\r\n    }\r\n    function delistDevice(string memory _imei) public {\r\n    require(deviceExists(_imei), \"Device with this IMEI does not exist.\");\r\n    // Logic to remove IMEI from reported list\r\n    // You might want to emit an event like DeviceDelisted\r\n    emit DeviceDelisted(_imei, msg.sender, block.timestamp);\r\n}\r\n\r\n    function getTotalReportedDevices() public view returns (uint256) {\r\n        return reportedImeis.length;\r\n    }\r\n\r\n    function getReportedImeis() public view returns (string[] memory) {\r\n        return reportedImeis;\r\n    }\r\n}\r\n",
  "sourcePath": "C:\\Users\\theni\\OneDrive - nonstopable\\Documents\\Blockchain_Solution_of_Mobile_theft\\contracts\\IMEI.sol",
  "compiler": {
    "name": "solc",
    "version": "0.8.0+commit.c7dfd78e.Emscripten.clang"
  },
  "schemaVersion": "3.4.16",
  "updatedAt": "2024-07-10T14:02:38.417Z",
  "networkType": "ethereum",
  "devdoc": {
    "kind": "dev",
    "methods": {},
    "version": 1
  },
  "userdoc": {
    "kind": "user",
    "methods": {},
    "version": 1
  }
}